{"abi":[{"type":"constructor","inputs":[{"name":"_weth","type":"address","internalType":"contract WETH"},{"name":"_auctioneer","type":"address","internalType":"address"},{"name":"settlement","type":"address","internalType":"address"}],"stateMutability":"nonpayable"},{"type":"function","name":"auctioneer","inputs":[],"outputs":[{"name":"","type":"address","internalType":"contract IAuctioneer"}],"stateMutability":"view"},{"type":"function","name":"bidCount","inputs":[],"outputs":[{"name":"","type":"uint256","internalType":"uint256"}],"stateMutability":"view"},{"type":"function","name":"bids","inputs":[{"name":"bidId","type":"uint256","internalType":"uint256"}],"outputs":[{"name":"state","type":"uint8","internalType":"enum IBidder.BidState"},{"name":"amountOfGas","type":"uint120","internalType":"uint120"},{"name":"weiPerGas","type":"uint128","internalType":"uint128"},{"name":"slot","type":"uint96","internalType":"uint96"},{"name":"bidder","type":"address","internalType":"address"},{"name":"bundleHash","type":"bytes32","internalType":"bytes32"}],"stateMutability":"view"},{"type":"function","name":"cancelOpenBid","inputs":[{"name":"bidId","type":"uint256","internalType":"uint256"}],"outputs":[],"stateMutability":"nonpayable"},{"type":"function","name":"checkPendingBids","inputs":[{"name":"currentSlot","type":"uint256","internalType":"uint256"}],"outputs":[],"stateMutability":"nonpayable"},{"type":"function","name":"getBid","inputs":[{"name":"","type":"uint256","internalType":"uint256"}],"outputs":[{"name":"packedBids","type":"uint256[]","internalType":"uint256[]"}],"stateMutability":"view"},{"type":"function","name":"getBidIdByBundleHash","inputs":[{"name":"bundleHash","type":"bytes32","internalType":"bytes32"}],"outputs":[{"name":"bidId","type":"uint256","internalType":"uint256"}],"stateMutability":"view"},{"type":"function","name":"getBidIdByDetails","inputs":[{"name":"amountOfGas","type":"uint120","internalType":"uint120"},{"name":"weiPerGas","type":"uint128","internalType":"uint128"}],"outputs":[{"name":"bidId","type":"uint256","internalType":"uint256"}],"stateMutability":"view"},{"type":"function","name":"getBidIdBySender","inputs":[{"name":"sender","type":"address","internalType":"address"}],"outputs":[{"name":"bidId","type":"uint256","internalType":"uint256"}],"stateMutability":"view"},{"type":"function","name":"house","inputs":[],"outputs":[{"name":"","type":"address","internalType":"contract ISettlement"}],"stateMutability":"view"},{"type":"function","name":"openBid","inputs":[{"name":"weiPerGas","type":"uint128","internalType":"uint128"},{"name":"amountOfGas","type":"uint120","internalType":"uint120"},{"name":"bundleHash","type":"bytes32","internalType":"bytes32"}],"outputs":[],"stateMutability":"payable"},{"type":"function","name":"operator","inputs":[],"outputs":[{"name":"","type":"address","internalType":"address"}],"stateMutability":"view"},{"type":"function","name":"removeBid","inputs":[{"name":"bidId","type":"uint256","internalType":"uint256"}],"outputs":[],"stateMutability":"nonpayable"},{"type":"function","name":"slotSubmitted","inputs":[],"outputs":[{"name":"","type":"uint256","internalType":"uint256"}],"stateMutability":"view"},{"type":"function","name":"submitBundles","inputs":[{"name":"slot","type":"uint256","internalType":"uint256"}],"outputs":[],"stateMutability":"nonpayable"},{"type":"function","name":"weth","inputs":[],"outputs":[{"name":"","type":"address","internalType":"contract WETH"}],"stateMutability":"view"}],"bytecode":{"object":"0x608080604052346200012a576060816200140a80380380916200002382856200012f565b8339810103126200012a5780516001600160a01b0380821692918390036200012a57620000616040620000596020850162000169565b930162000169565b908060018060a01b03199385856001541617600155169182846002541617600255168260035416176003556040519063095ea7b360e01b825260048201526000196024820152602081604481600080975af180156200011f57620000d8575b508154163317905560405161128b90816200017f8239f35b6020813d60201162000116575b81620000f4602093836200012f565b81010312620001125751801515036200010e5738620000c0565b5080fd5b8280fd5b3d9150620000e5565b6040513d85823e3d90fd5b600080fd5b601f909101601f19168101906001600160401b038211908210176200015357604052565b634e487b7160e01b600052604160045260246000fd5b51906001600160a01b03821682036200012a5756fe608060408181526004918236101561001657600080fd5b600092833560e01c91826304146d75146106df575081633c889e6f146106825781633fc8cef3146106595781634352f2771461063c5781634423c5f1146105ad5781634dd826651461036c578163570ca735146103445781635ec2c7bf1461031b578163734c9945146102d05781637df8ccf1146102b35781637f4e6104146101af578163b320f4591461017e578163b40a56271461015f578163c1c179f61461013f578163e642a24714610100575063ff9b3acf146100d557600080fd5b346100fc57816003193601126100fc5760035490516001600160a01b039091168152602090f35b5080fd5b90503461013b57602036600319011261013b5735916001600160a01b03831683036101385750610131602092611123565b9051908152f35b80fd5b8280fd5b8284346101385760203660031901126101385750610131602092356110ca565b5050346100fc57816003193601126100fc576020906005549051908152f35b8390346100fc5760203660031901126100fc5781546001600160a01b031633036100fc576101ac903561117a565b80f35b9190503461013b57602036600319011261013b5781358084526007602052818420600181015460601c33036102af576101f990546001600160781b038160081c169060801c610a2f565b90808552600760205260ff8386205416600381101561029c579085916100fc5760209261022760449261117a565b600154855163a9059cbb60e01b81523388820152602481019290925283906001600160a01b03165af13d15601f3d11600186511416171615610267578280f35b906020606492519162461bcd60e51b8352820152600f60248201526e1514905394d1915497d19052531151608a1b6044820152fd5b634e487b7160e01b865260218552602486fd5b8480fd5b8390346100fc5760203660031901126100fc576101ac9035610f71565b905082346101385782600319360112610138575035906001600160781b038216820361031657602435916001600160801b03831683036103165760209261013191610ed5565b600080fd5b5050346100fc57816003193601126100fc5760025490516001600160a01b039091168152602090f35b5050346100fc57816003193601126100fc57905490516001600160a01b039091168152602090f35b838360603660031901126100fc5782356001600160801b038082168092036105a957602435906001600160781b03938483168093036105a5576103af8385610a2f565b80156105515734106105a5576001546001600160a01b0392908316803b156105a157878991845192838092630d0e30db60e41b825234905af180156105845761058e575b5060246020846002541684519283809263ed8b01bb60e01b82528d30908301525afa908115610584579060ff918991610555575b50161561055157610439600554610782565b948560055582519660c0880188811067ffffffffffffffff82111761053c578452888852602088019586528388019182526060880195898752608089019433865260a08a01986044358a528b5260076020528a209851600381101561052957926104d76104f7936105229896936104b560029c9b99978e610a4f565b518c54610100600160801b031916911660081b610100600160801b0316178b55565b5189546001600160801b0316911660801b6001600160801b031916178855565b915191511660601b6bffffffffffffffffffffffff19166001600160601b0391909116176001850155565b5191015580f35b634e487b7160e01b8b5260218c5260248bfd5b60418b634e487b7160e01b6000525260246000fd5b8680fd5b610577915060203d60201161057d575b61056f8183610724565b810190610746565b8a610427565b503d610565565b83513d8a823e3d90fd5b61059a909791976106fa565b95886103f3565b8780fd5b8580fd5b8380fd5b8383346100fc5760203660031901126100fc5782358252600760205280822080549160ff83169260026001840154930154938251956003821015610629575060c0965085526001600160781b038160081c16602086015260801c908401526001600160601b038116606084015260601c608083015260a0820152f35b634e487b7160e01b815260218852602490fd5b8390346100fc5760203660031901126100fc576101ac9035610a7d565b5050346100fc57816003193601126100fc5760015490516001600160a01b039091168152602090f35b5050346100fc576020908160031936011261013b57916106a06107d3565b9083519383808695860192818752855180945286019401925b8281106106c857505050500390f35b8351855286955093810193928101926001016106b9565b84913461013b578260031936011261013b5760209250548152f35b67ffffffffffffffff811161070e57604052565b634e487b7160e01b600052604160045260246000fd5b90601f8019910116810190811067ffffffffffffffff82111761070e57604052565b90816020910312610316575160ff811681036103165790565b9190820180921161076c57565b634e487b7160e01b600052601160045260246000fd5b600019811461076c5760010190565b67ffffffffffffffff811161070e5760051b60200190565b80518210156107bd5760209160051b010190565b634e487b7160e01b600052603260045260246000fd5b6005549060018060a01b0360025416916040916040519263ed8b01bb60e01b84526004913060048601526020908186602481819a5afa9586156109b857600096610999575b50936000956001956001830180931197885b610985578388101561088e57876000526007855260ff866000205416600381101561087a5790899493929161087157610864600191610782565b985b01979091929361082a565b97600190610866565b8a602189634e487b7160e01b600052526000fd5b949290889697509391936108a186610791565b956108af6040519788610724565b8087526108be601f1991610791565b013684880137859160006001985b6109715781891015610963578860005260078552856000205460ff90818116600381101561094f57610944579161092a61093a9261092185610100600160801b0360019716906001600160801b03191661075f565b908b169061075f565b610934828c6107a9565b52610782565b985b01978a6108cc565b50509760019061093c565b8e60218e634e487b7160e01b600052526000fd5b505097509750505050505050565b8b60118b634e487b7160e01b600052526000fd5b89601188634e487b7160e01b600052526000fd5b6109b1919650823d841161057d5761056f8183610724565b9438610818565b6040513d6000823e3d90fd5b51906001600160781b038216820361031657565b5190811515820361031657565b908160a0910312610316576109f9816109c4565b91610a06602083016109d8565b91610a13604082016109d8565b91610a2c6080610a25606085016109d8565b93016109d8565b90565b8181029291811591840414171561076c57565b801561076c576000190190565b906003811015610a675760ff80198354169116179055565b634e487b7160e01b600052602160045260246000fd5b90600454821115610ed1576002546040516302b8d13560e51b8152600481018490526001600160a01b03909116919060a081602481865afa9081156109b857600080600092600094610e9b575b506103165715610316576103165761031657604060449281519384809263199f3edf60e01b82528760048301523060248301525afa9182156109b8576000908193610e49575b506001600160781b0381161561031657600654600060065580610e05575b5092610b386107d3565b928351926000855260208501955b60208701938560051b87018511610b9f57845197805189811115610b90575b6020820152601f19018051898111610b655750602001979097529295919490935b9390949192610b46565b50509295919490939650610b86565b9492919650949250818352600091805b610d14575b5050505080600455610bc581610f71565b60025460035460405163426a849360e01b81526001600160a01b039182166004820152602481018490526001600160781b03851660448201529160209183916064918391600091165af180156109b857610cdb575b506003546001600160a01b031690813b1561031657916001600160781b0392604051938492631638179b60e31b84526064840192600485015216602483015260606044830152600654809152608482019060066000527ff652222313e28459528d920b65115c16c04f3efc82aaedc97be59f3f377c0d3f9060005b818110610cc2575050509181600081819503925af180156109b857610cb75750565b610cc0906106fa565b565b8254845286945060209093019260019283019201610c95565b6020813d602011610d0c575b81610cf460209383610724565b8101031261031657610d05906109d8565b5038610c1a565b3d9150610ce7565b600019810181811161076c57610d2a90856107a9565b51610d506001600160781b038260081c169160801c94610d4a8387610a2f565b9061075f565b936001600160801b0384168511610dfe57610d6a91610ed5565b600052600760205260406000209060026001928360ff198254161781558381016001600160601b0389166001600160601b03198254161790550154600654926801000000000000000084101561070e578301806006558310156107bd57610df89260066000527ff652222313e28459528d920b65115c16c04f3efc82aaedc97be59f3f377c0d3f0155610a42565b80610baf565b5050610bb4565b60066000527ff652222313e28459528d920b65115c16c04f3efc82aaedc97be59f3f377c0d3f908101905b818110610e3d5750610b2e565b60008155600101610e30565b9092506040813d604011610e93575b81610e6560409383610724565b8101031261013b576020610e78826109c4565b910151926001600160801b0384168403610138575038610b10565b3d9150610e58565b92505050610ec1915060a03d60a011610eca575b610eb98183610724565b8101906109e5565b93509138610aca565b503d610eaf565b9050565b600554600192839291838101908110845b610ef6575b505050505050600090565b80610f5c5781861015610f575760406000878152600760205220546001600160801b0384168160801c149081610f3e575b50610f36578480960195610ee6565b505050505090565b90506001600160781b038086169160081c161438610f27565b610eeb565b60246000634e487b7160e01b81526011600452fd5b6005546001926001820180921191825b610f5c57808510156110c357600094808652600760205260409586812090815460ff811660038110156110af5760010361109f576001600160601b0360018401541698888a1461108e576002805482516302b8d13560e51b8152600481019c909c5290939060a09081908d9060249082906001600160a01b03165afa928315611083575060019798999a9b8291839461105e575b5050156110545715611038575050815460ff19161790555b019392919082610f81565b909150611047575b505061102d565b60ff191690553880611040565b505050505061102d565b915091506110789250803d10610eca57610eb98183610724565b935091503880611015565b51913d9150823e3d90fd5b50505050600191929394955061102d565b505050600191929394955061102d565b634e487b7160e01b83526021600452602483fd5b5092505050565b6005546001918291828101908110835b6110e9575b5050505050600090565b80610f5c578185101561111e57826002604060008881526007602052200154146111175783809501946110da565b5050505090565b6110df565b6005549060019182810180911192835b610f5c578181101561117157600160406000838152600760205220015460601c60018060a01b0384161461116a5760010183611133565b9250505090565b50505050600090565b60055490600091825260076020526040822090825260408220908082036111c9575b50506005548152600760205260026040822082815582600182015501556111c4600554610a42565b600555565b6002816111db60ff8394541685610a4f565b80548454610100600160801b031916610100600160801b03909116178455805484546001600160801b03166001600160801b03199091161784556001818101805491860180546001600160601b039093166bffffffffffffffffffffffff199384168117825591549092161790550154910155388061119c56fea2646970667358221220df8954e8f0880245fa5cb78cc47e6fecadebeb8f44143e83645db4edb7b29a0b64736f6c63430008160033","linkReferences":{}},"methodIdentifiers":{"auctioneer()":"5ec2c7bf","bidCount()":"b40a5627","bids(uint256)":"4423c5f1","cancelOpenBid(uint256)":"7f4e6104","checkPendingBids(uint256)":"7df8ccf1","getBid(uint256)":"3c889e6f","getBidIdByBundleHash(bytes32)":"c1c179f6","getBidIdByDetails(uint120,uint128)":"734c9945","getBidIdBySender(address)":"e642a247","house()":"ff9b3acf","openBid(uint128,uint120,bytes32)":"4dd82665","operator()":"570ca735","removeBid(uint256)":"b320f459","slotSubmitted()":"04146d75","submitBundles(uint256)":"4352f277","weth()":"3fc8cef3"},"id":24}